:100000000C9434000C9451000C9451000C94510049
:100010000C9451000C9451000C9451000C9451001C
:100020000C9451000C9451000C9451000C94D2008B
:100030000C9451000C9451000C9451000C945100FC
:100040000C9451000C9451000C9451000C945100EC
:100050000C9451000C9451000C9451000C945100DC
:100060000C9451000C94510011241FBECFEFD8E026
:10007000DEBFCDBF11E0A0E0B1E0E8E5F4E002C0F2
:1000800005900D92A630B107D9F721E0A6E0B1E0C6
:1000900001C01D92A433B207E1F70E94F7010C944E
:1000A0002A020C9400000F931F93CF93DF938C01CF
:1000B0008091060190910701892B81F0E6E0F1E043
:1000C00021E030E0822FE901A781B0852F5F3F4F0B
:1000D0003796AB2BB9F7853021F415C0C0E0D0E0DE
:1000E00080E0FE01EE0FFF1FEE0FFF1FEE0FFF1F60
:1000F000EC1BFD0BEA5FFE4F118300837383628369
:10010000558344831682DF91CF911F910F910895FB
:1001100027E0829FC0011124FC01EA5FFE4F11829B
:1001200010821382128215821482168280E0089552
:10013000EF92FF921F93CF93DF93C6E0D1E010E0E0
:100140008E81882379F0E881F981309759F00995FB
:100150008E8181508E838C819D81892B19F4812F12
:100160000E9488001F5F2796153051F7DF91CF91CD
:100170001F91FF90EF900895CF93C0E08C2F0E94C5
:100180008800CF5FC530D1F781E792E09093890076
:10019000809388008CE08093810082E080936F00E0
:1001A000CF9108951F920F920FB60F9211242F93A3
:1001B0003F938F939F93AF93BF93EF93FF93E6E0AB
:1001C000F1E029E231E080819181892B91F08281F7
:1001D0009381009759F486818F5F8683848195810E
:1001E000009739F001979383828303C0019793832B
:1001F00082833796E217F30731F7FF91EF91BF91B2
:10020000AF919F918F913F912F910F900FBE0F90C3
:100210001F9018951092C50083E38093C40010923C
:10022000C00088E18093C10086E08093C2000895F9
:1002300080E680937C0087E880937A000895259A71
:10024000249A239A0895ECE7F0E080818E7F8083E2
:10025000EAE7F0E0808180648083808186FDFDCFC5
:10026000409178005091790088E893E1489F90018F
:10027000499F300D589F300D1124232F3327269589
:100280002695245F3140ADECBCEC0E941B02969594
:100290008795969587959695879590932F0180934E
:1002A0002E0108952D9A20910401309105012817FF
:1002B000390710F52B9A2FEF33EC49E021503040ED
:1002C0004040E1F700C000002B982FEF33EC49E0ED
:1002D000215030404040E1F700C00000209104016F
:1002E000309105012F5F3F4F3093050120930401AA
:1002F0008217930709F42D9808952C9A40910401D0
:100300005091050120910201309103012417350716
:1003100014F12B9A2FEF33EC49E02150304040404C
:10032000E1F700C000002B982FEF33EC49E021509B
:1003300030404040E1F700C00000209104013091BE
:10034000050121503109309305012093040128173C
:10035000390709F42C9808958091020190910301C6
:100360000E945201089580910001909101010E9424
:100370007D01089580912B01813029F40E94AC0108
:1003800010922B010895823021F40E94B301109243
:100390002B010895E0ECF0E080818823ECF7809158
:1003A000C60008950E94CA0180932B010895E0ECD5
:1003B000F0E0908195FFFDCF8093C6000895CF9324
:1003C000DF93D82FC92F82E090E00E94D7018D2FB4
:1003D00090E00E94D7018C2F90E00E94D701DF911E
:1003E000CF9108950E9423010E94DF0108950E9489
:1003F00018010E940A010E941F010E94BC0078940B
:1004000044E650E060E070E082ED91E00E9453002D
:1004100044E650E060E070E08AEB91E00E94530017
:1004200044E650E060E070E082EF91E00E9453000B
:100430000E949800FDCFA29FB001B39FC001A39F6F
:10044000700D811D1124911DB29F700D811D11240D
:08045000911D0895F894FFCFFF
:0604580001000A0008008B
:00000001FF
